:020000040800F2
:10000000D00900205502000851620008A91F00080D
:100010004D62000841060008B16D000800000000B4
:100020000000000000000000000000008F620008D7
:1000300051090008000000008D620008E16400081A
:100040006F0200086F0200086F0200086F020008CC
:100050006F0200086F0200086F0200086F020008BC
:100060006F0200086F0200086F0200086F020008AC
:100070006F0200086F0200086F0200086F0200089C
:100080006F0200086F0200086F0200086F0200088C
:100090006F0200086F0200086F0200086F0200087C
:1000A0006F0200086F0200086F0200086F0200086C
:1000B0006F0200086F020008996500086F020008CF
:1000C0006F0200086F0200086F0200086F0200084C
:1000D0006F020008116D00086F0200086F0200082F
:1000E0006F0200086F0200086F0200086F0200082C
:1000F0006F0200086F0200086F0200086F0200081C
:100100006F0200086F0200086F0200086F0200080B
:100110006F0200086F0200086F0200086F020008FB
:100120006F0200086F0200086F0200086F020008EB
:100130006F0200086F0200086F0200086F020008DB
:100140006F0200086F0200086F0200086F020008CB
:100150006F0200086F0200086F0200086F020008BB
:100160006F0200086F0200086F0200086F020008AB
:100170006F0200086F0200086F0200080000000014
:100180006F0200086F0200086F0200086F0200088B
:100190006F0200086F0200086F0200086F0200087B
:1001A0006F0200086F0200086F02000800F002F8FA
:1001B00000F041F80AA090E8000C82448344AAF1C0
:1001C0000107DA4501D100F036F8AFF2090EBAE8BE
:1001D0000F0013F0010F18BFFB1A43F0010318477B
:1001E000C0C70000E0C70000103A24BF78C878C13B
:1001F000FAD8520724BF30C830C144BF04680C602D
:10020000704700000023002400250026103A28BF74
:1002100078C1FBD8520728BF30C148BF0B60704778
:10022000782900F08180002070471FB507F021FF7A
:100230001FBD10B510BD00F0D1F91146FFF7F5FF55
:1002400006F00AFE00F0EFF903B4FFF7F2FF03BC7B
:1002500006F0B7FD0948804709480047FEE7FEE77A
:10026000FEE7FEE7FEE7FEE7FEE7FEE7FEE7FEE766
:1002700004480549054A064B70470000E964000838
:10028000AD010008D0030020D0090020D0050020D7
:10029000D0050020704700000FB4044910B503AA30
:1002A000029800F085F910BC5DF814FBEC0000200A
:1002B0000FB41CB5074B06AA7B446946009005980D
:1002C00000F05DF90020694600F06CF91CBC5DF897
:1002D00014FB0000E902000070B50446856900685F
:1002E000C10601D5302600E02026C00707D070BD2A
:1002F000D4E9012130469047206A401C20626D1EDF
:10030000F6D570BD70B5044685690078C00707D181
:1003100070BDD4E9012120209047206A401C206252
:100320006D1EF6D570BD000070B504460D46214621
:100330001068AFF300802188090502D50F4A7A447E
:1003400002E00E4A7A440E32002104F1240305E053
:1003500000F00F060009965D5E54491C0028F7D195
:1003600020780023000704D5702D02D009B10223A4
:1003700011322046BDE8704000F0A2B8F4C500007C
:100380002DE9F05F894604464FF0000ADFF824B1FA
:10039000FB44C0F820A02046E168884700287DD0B3
:1003A000252806D0D4E901219047206A401C20620C
:1003B000F1E700255F462046E16888472028064689
:1003C00007DB312E05D2B81910F8200C08B105430F
:1003D000F1E7A80701D525F00405C4F81CA0002703
:1003E000C4F818A02A2E09D0304606F0E3FC38B332
:1003F00004EB8708303EC8F8186019E059F8041B70
:10040000204604EB87029161E1688847012F064688
:1004100018D1E069002820DA25F020051DE0D8F881
:10042000180000EB800006EB40003038C8F81800D8
:100430002046E1688847064606F0BCFC0028EED15D
:10044000012F0AD02E2E08D12046E16888477F1C54
:100450000646022F45F02005C4DBA069002803DA18
:10046000404245F00105A061E80701D025F01005E4
:10047000A6B1A6F14100192802D8203645F400653E
:100480004A463146204625604D46FFF7C9FE60B119
:10049000012807D0ED1D25F0070000E007E000F17E
:1004A000080978E705F1040975E730467AE7206A1C
:1004B000BDE8F09FCAC5000070477047704770479D
:1004C0002DE9F0470D4699469246044600F124086E
:1004D0000168880604D5E06921F01001216000E080
:1004E0000120A84201DD471B00E00027A1697A191D
:1004F00002EB0900081AA0612078C00602D4204649
:10050000FFF7EAFE002608E0D4E901211AF8060008
:100510009047206A401C761C20624E45F4DB207810
:10052000C0060AD52046FFF7D7FE06E0D4E9012130
:1005300030209047206A401C2062381EA7F1010736
:10054000F4DC07E0D4E9012118F805009047206A9F
:10055000401C2062281EA5F10105F3DC2046FFF7B0
:10056000D1FE2078000602D50220BDE8F0870120E8
:10057000FBE7000001694A1C02610878704700B57A
:100580008FB0CDE901310021059105497944CDE9CC
:10059000031011466846FFF7F3FE0FB000BD0000E0
:1005A000E5FFFFFF0A6802F8010B0A6070470000D0
:1005B000074B70B50D467B44FFF7E1FF0446284624
:1005C00000F008F810B14FF0FF3070BD204670BD4C
:1005D00083680000007B00F080007047754600F0E3
:1005E0002BF8AE4605006946534620F007008546C5
:1005F00018B020B5FFF73CFEBDE820404FF00006E4
:100600004FF000074FF000084FF0000B21F00701FA
:10061000AC46ACE8C009ACE8C009ACE8C009ACE83D
:10062000C0098D46704710B50446AFF300802046E0
:10063000BDE81040FFF708BE004870477003002077
:1006400000BFFEE70FB42DE9FE4F81460025BDF83F
:100650003400BDF838100844283080B2ADF83400BA
:10066000BDF83600303880B2ADF83600BDF83A003B
:10067000303080B2ADF83A00BDF838004100BDF826
:100680003A0001EB4000029002984008B0FBF9F4F8
:10069000029804FB1900B0FBF9F61298D0B9AB48E8
:1006A00000680090BDF836C0BDF83AE0F4441FFA87
:1006B0008CF3BDF834C0BDF838E0F4441FFA8CF276
:1006C000BDF83610BDF8340002F064FDBDE8FE0F41
:1006D0005DF814FB4FF0000A32E128193044BDF8F0
:1006E0003810884246D9BDF83800BDF83A100844A1
:1006F0002919314488423DD32819BDF83810884261
:1007000014D3BDF83400BDF8381008441FFA80F83F
:100710002819BDF83810401ABDF83610084487B2C1
:10072000CDF80480B8191FFA80FBF0E0BDF8340062
:10073000284420441FFA80F8BDF83670BDF8340014
:10074000BDF83810084480B20190BB465B4639467C
:100750004046019A02F0E4FBDDF804805F46CDF8E4
:10076000048028193044BDF83810401A38441FFA64
:1007700080FBCCE0BDF83800BDF83A1008442919D8
:100780003144884261D2BDF83A10BDF8380001EB1F
:10079000400029193144884257D3BDF83800BDF8CC
:1007A0003A1008442919884219D8BDF83A10BDF802
:1007B000380001EB4000401BA119401ABDF834106D
:1007C00008441FFA80F8BDF83600BDF83A10084416
:1007D00087B208EB060080B20190BB4697E0BDF8F7
:1007E0003400BDF8381008441FFA80F8BDF8360010
:1007F00028442044BDF83810401A87B2CDF8048050
:10080000BDF83600BDF83A1008441FFA80FB5B467D
:1008100039464046019A02F083FBBDF83A10BDF814
:10082000380001EB4000401BA119401ABDF83410FC
:1008300008441FFA80F85F46BDF83400BDF8381050
:10084000084480B20190BB4661E0BDF83A10BDF8A3
:10085000380001EB400029193144884243D2BDF8E9
:100860003A10BDF8380001EB4000291988420FD832
:10087000BDF834800298401BA119401ABDF836100B
:10088000084487B2CDF80480B8191FFA80FB3EE017
:10089000BDF834800298401BA119401ABDF83610EB
:1008A000084487B2CDF80480BDF83600BDF83A1090
:1008B00008441FFA80FB5B4639464046019A02F025
:1008C0002FFBDDF804805F46BDF83A10BDF8380014
:1008D00001EB4000401B001BBDF83410084480B2FF
:1008E0000190BB4613E0BDF834002844BAF1000F74
:1008F00001D0012100E0002104FB01001FFA80F873
:10090000BDF8367008EB060080B20190BB465B462E
:1009100039464046019A02F003FB0AF10100704398
:1009200004FB0A054FF47A7111984843B0FBF9F0C3
:1009300080B2009006F052FA0AF1010000F0FF0ABE
:10094000CA45FFF6CAAE00BFC0E60000F8000020AE
:100950007047000070B504461D460023B5F5804F72
:1009600013D154F822300C480340D1E9000640EA84
:1009700006108E6840EA06208E8940EA06408E699D
:100980003043034344F8223003E06FF0704044F8F2
:100990002200002070BD00000000F0CF10B502461C
:1009A0000023086852F820301B480340D1E90104B5
:1009B0002043CC6820430C6920434C6920438C6958
:1009C0002043CC6920430C6A20434C6A20438C6A44
:1009D0002043CC6A2043CC6B20430C6B20434C6BF0
:1009E000204303438868082801D143F04003086886
:1009F00042F82030486BB0F5801F0AD1086840B13A
:100A00004FF4807008614C6B0869204314682043E0
:100A10001060002010BD00008000E0FF30B50346EC
:100A200014460022601C53F8202002F04042D1E915
:100A3000000540EA05108D6840EA05208D8940EAEE
:100A40000545088A401E45EA0055087D801E45EA96
:100A500000608D6928430243601C43F82020186819
:100A600000F4801038B1586820F47002088A401EE3
:100A700042EA00525A60002030BD0000F8B502463C
:100A80000B460025002400200021E6E0012606FA9E
:100A900001F51E6806EA0504AC4273D15E68022EB9
:100AA00002D05E68122E13D1CF0802F1200656F84C
:100AB00027004E07F70E0F26BE40B0434F07FF0E2C
:100AC0001E69BE403043CF0802F1200646F82700D9
:100AD00010684F000326BE40B0431E7906F003069F
:100AE0004F00BE40304310605E68012E08D05E6843
:100AF000022E05D05E68112E02D05E68122E13D130
:100B000090684F000326BE40B0434F00DE68BE40F1
:100B100030439060506801268E40B0431E79C6F382
:100B200000168E4030435060D0684F000326BE4010
:100B3000B0434F009E68BE403043D0605E6806F010
:100B40008056B6F1805FA8D100BF00260096454EC2
:100B5000366846F48046434F3E603E46366806F4AB
:100B60008046009600BF00BF3F4E8F0856F8270012
:100B70008E07370F0F26BE40B0433C4EB24202D123
:100B800000262EE068E03A4EB24201D1012628E06C
:100B9000384EB24201D1022623E0374EB24201D193
:100BA00003261EE0354EB24201D1042619E0344E30
:100BB000B24201D1052614E0324EB24201D10626DE
:100BC0000FE0314EB24201D107260AE02F4EB24269
:100BD00001D1082605E02E4EB24201D1092600E0DF
:100BE0000A268F073F0FBE4030431F4E8F0846F83E
:100BF0002700284E3068A0435E6806F48036B6F5BC
:100C0000803F00D12043234E3060361D3068A04322
:100C10005E6806F40036B6F5003F00D120431D4E55
:100C2000361D3060361D3068A0435E6806F48016BD
:100C3000B6F5801F00D12043164E08363060361DB1
:100C40003068A0435E6806F40016B6F5001F00D1B8
:100C50002043104E0C363060491C1029FFF416AFAB
:100C6000F8BD00004438024008380140000002404E
:100C70000004024000080240000C02400010024044
:100C80000014024000180240001C024000200240F4
:100C900000240240003C0140024613690B400BB1A6
:100CA000012000E0002070470AB1816101E00B04DF
:100CB000836170470148006870470000E40000202D
:100CC00002480068401C014908607047E4000020A9
:100CD00010B50D48006840F400700B4908600846E4
:100CE000006840F4806008600846006840F4807046
:100CF0000860052000F06CF80F2000F007F800F005
:100D000017F8002010BD0000003C024070B50446FA
:100D100000F01CFA4FF47A71B0FBF1F5284600F0B0
:100D20004DFD00222146501E00F014F8002070BD39
:100D300008B50020009000BF08BD00BF00F01F02F2
:100D4000012191404209920002F1E022C2F8001113
:100D500000BF70472DE9F05F80460D46164600271C
:100D600005F078FA074639462A46334601F007006F
:100D7000C0F1070ABAF1040F02D94FF0040A01E0EA
:100D8000C0F1070AD14600F1040ABAF1070F02D2F6
:100D90004FF0000A01E0A0F1030AD4464FF0010A27
:100DA0000AFA09FAAAF1010A0AEA020A0AFA0CFA8C
:100DB0004FF0010B0BFA0CFBABF1010B0BEA030B31
:100DC0004AEA0B042146404605F04CFABDE8F09F84
:100DD00000BF00F00702064B19684FF6FF031940E9
:100DE000044B0B4343EA0221014B196000BF7047DB
:100DF0000CED00E00000FA0538B5002400BF00202B
:100E000000902348006840F080502149086008465F
:100E1000006800F08050009000BF00BF0120010476
:100E200091FAA1F1B1FA81F11A4A42F82100FFF7D3
:100E300041FF044607E0FFF73DFF001BB0F57A7F56
:100E400001D9032038BD1448406800F48030B0F563
:100E5000803FF0D10120410491FAA1F1B1FA81F172
:100E60000C4A42F82100FFF725FF044607E0FFF790
:100E700021FF001BB0F57A7F01D90320E2E7064885
:100E8000406800F40030B0F5003FF0D10020D9E711
:100E90004038024000000E420070004070B5044629
:100EA0000E460025A748006800F00F00B0426FD240
:100EB000A4490E700846006800F00F00B04201D04F
:100EC000012070BD207800F00200022807D19E4862
:100ED000006820F0F000A16808439B490860207872
:100EE00000F0010000283ED06068012807D1964834
:100EF00008380068C0F34040B8B90120E1E76068F5
:100F0000022802D06068032807D18F48083800689B
:100F1000C0F3406048B90120D3E78B480838006827
:100F2000C0F3400008B90120CBE78748006820F0F3
:100F300003006168084384490860FFF7BBFE05466B
:100F40006068012810D108E0FFF7B4FE401B41F2B1
:100F50008831884201D90320B3E77B48006800F05C
:100F60000C000428F0D1CDE06068022811D108E01F
:100F7000FFF7A0FE401B41F28831884201D90320CF
:100F80009FE77148006800F00C000828F0D1B9E034
:100F900024E06068032810D108E0FFF78BFE401BB7
:100FA00041F28831884201D903208AE76648006807
:100FB00000F00C000328F0D1A4E008E0FFF77AFE6F
:100FC000401B41F28831884201D9032079E75E480D
:100FD000006800F00C000028F0D193E0207800F0C9
:100FE0000200022807D15848006820F0F000A168EC
:100FF000084355490860207800F00100002877D0A8
:101000006068012807D1504808380068C0F34040A4
:10101000B8B9012055E76068022802D0606803284B
:1010200007D1494808380068C0F3406048B901203A
:1010300047E7454808380068C0F3400008B9012078
:101040003FE74148006820F00300616808433E49DB
:101050000860FFF72FFE05466068012810D108E000
:10106000FFF728FE401B41F28831884201D9032056
:1010700027E73548006800F00C000428F0D137E07D
:101080006068022810D108E0FFF714FE401B41F20F
:101090008831884201D9032013E72B48006800F00B
:1010A0000C000828F0D123E06068032810D108E084
:1010B000FFF700FE401B41F28831884201D903202E
:1010C000FFE62148006800F00C000328F0D10FE093
:1010D00008E0FFF7EFFD401B41F28831884201D95B
:1010E0000320EEE61848006800F00C000028F0D15C
:1010F00014490E700846006800F00F00B04201D09D
:101100000120DEE6207800F00400042807D10E4814
:10111000006820F4E050E16808430B49086020783B
:1011200000F00800082808D10748006820F4604053
:10113000216940EAC100044908600F20FFF7E6FD7D
:101140000020BEE6003C02400838024010B500F026
:1011500045F80949096801F0F001F02292FAA2F27B
:10116000B2FA82F2D140054A515CC8400449086095
:101170000846006810BD000008380240868000085C
:101180007400002010B5FFF7E1FF0749096801F47A
:10119000E0514FF4E05292FAA2F2B2FA82F2D14058
:1011A000024A515CC84010BD0838024086800008E1
:1011B00010B5FFF7CBFF0749096801F460414FF410
:1011C000604292FAA2F2B2FA82F2D140024A515C33
:1011D000C84010BD083802408680000870B5002164
:1011E000002200230020274C246804F00C0424B1C2
:1011F000042C04D0082C41D103E0234840E02348CC
:101200003EE0204C241F246804F03F011D4C241FA5
:10121000246804F4800484B11C4CB4FBF1F5194C2F
:10122000241F246847F6C076344096FAA6F6B6FA2C
:1012300086F6F44005FB04F20FE0134CB4FBF1F525
:10124000104C241F246847F6C076344096FAA6F660
:10125000B6FA86F6F44005FB04F20A4C241F246813
:1012600004F440344FF4403595FAA5F5B5FA85F508
:10127000EC40641C6300B2FBF3F001E0024800BFE5
:1012800000BF70BD083802400024F40040787D01A2
:1012900038B504460025207800F00100002866D00B
:1012A000F748006800F00C0004280DD0F4480068EE
:1012B00000F00C00082813D1F148001F006800F46A
:1012C0008000B0F5800F0BD1ED4808380068C0F3FE
:1012D000404000284BD06068002848D1012038BD2C
:1012E0000020E749891F0870FFF7E4FC054608E085
:1012F000FFF7E0FC401B41F28831884201D903200E
:10130000EDE7DF4808380068C0F340400028EFD11F
:101310002079DB49891F08706068A0B1FFF7CAFC1B
:10132000054608E0FFF7C6FC401B41F288318842C1
:1013300001D90320D3E7D24808380068C0F3404001
:101340000028EFD013E0FFF7B5FC054608E0FFF7F3
:10135000B1FC401B41F28831884201D90320BEE72D
:10136000C74808380068C0F340400028EFD1207813
:1013700000F00200022869D1C148006800F00C00AA
:1013800058B1BF48006800F00C00082821D1BC48C3
:10139000001F006800F48000D8B9B9480838006818
:1013A000C0F3400020B1E068012801D0012096E799
:1013B000B3480838006820F0F800F82292FAA2F248
:1013C000B2FA82F2216991400843AD4908390860B8
:1013D0003CE0E06828B30120AA490860FFF76AFCF6
:1013E000054606E0FFF766FC401B642801D9032090
:1013F00075E7A34808380068C0F340000028F1D022
:101400009F480838006820F0F800F82292FAA2F20B
:10141000B2FA82F22169914008439949083908607B
:1014200014E0002097490860FFF744FC054606E0F9
:10143000FFF740FC401B642801D903204FE7904888
:1014400008380068C0F340000028F1D1207800F08F
:10145000080008282CD16069A8B101208A490860D9
:10146000FFF728FC054606E0FFF724FC401B642834
:1014700001D9032033E782486C300068C0F3400094
:101480000028F1D014E000207F490860FFF712FC2B
:10149000054606E0FFF70EFC401B642801D9032037
:1014A0001DE777486C300068C0F340000028F1D198
:1014B000207800F0040004286FD100BF00200090C5
:1014C0006F483830006840F080506D49383108600E
:1014D0000846006800F08050009000BF00BF6B48D5
:1014E000006840F4807069490860FFF7E3FB054637
:1014F00006E0FFF7DFFB401B642801D90320EEE67E
:101500006248006800F480700028F2D000205C4936
:1015100068310870FFF7CEFB054608E0FFF7CAFB0D
:10152000401B41F28831884201D90320D7E6544854
:1015300068300068C0F340000028EFD1207A50499D
:1015400068310870A068A0B1FFF7B4FB054608E059
:10155000FFF7B0FB401B41F28831884201D90320DC
:10156000BDE6474868300068C0F340000028EFD06F
:1015700013E0FFF79FFB054608E0FFF79BFB401BCE
:1015800041F28831884201D90320A8E63C486830FE
:101590000068C0F340000028EFD1A069F0B33848DC
:1015A000006800F00C00082872D0A069022850D111
:1015B000002034490866FFF77DFB054606E0FFF78B
:1015C00079FB401B642801D9032088E62C480838A1
:1015D0000068C0F340600028F1D1D4E90701084356
:1015E00047F6C07292FAA2F2B2FA82F2616A9140B0
:1015F00008430122A16AC2EB51014FF4403292FA32
:10160000A2F2B2FA82F2914008434FF0706292FA6D
:10161000A2F2B2FA82F2E16A914000E03AE00843B5
:101620001749091F0860012016490866FFF742FBA9
:10163000054606E0FFF73EFB401B642801D9032066
:101640004DE60F4808380068C0F340600028F1D02C
:1016500020E000200B490866FFF72CFB054606E05A
:10166000FFF728FB401B642801D9032037E6044814
:1016700008380068C0F340600028F1D10AE007E0B4
:101680000838024000004742800E47420070004088
:10169000012024E6002022E670B504460E461546D9
:1016A0000CB9012070BD94F8490028B9002084F8D5
:1016B0004800204600F01CF804F108012068FFF7FC
:1016C0006DF93146A2682068FFF7A8F92946236B17
:1016D000D4E90102FFF73EF9A168206850F8210023
:1016E00040F00100A268216841F822000020D9E7FB
:1016F00010B586B0044600BF002000902248006864
:1017000040F00100204908600846006800F0010030
:10171000009000BF00BF00BF002000901A480838AA
:10172000006840F008001849083908600846006859
:1017300000F00800009000BF00BF00BF0020009034
:101740000846006840F0100008600846006800F095
:101750001000009000BF00BF4EF2B3700190022055
:10176000029001200390032004900C20059001A911
:101770000648FFF783F94FF68070019001A90448ED
:10178000FFF77CF906B010BD38380240000C02406B
:1017900000100240042808D14FF0E021096941F00F
:1017A00004014FF0E022116107E04FF0E0210969E8
:1017B00021F004014FF0E0221161704770B504463A
:1017C0002546681EB0F1807F01D301200FE0681E1E
:1017D0004FF0E02148610F214FF0FF3004F042FD4F
:1017E00000204FF0E021886107200861002070BDD3
:1017F0007047704710B504460CB9012010BD94F82D
:10180000390028B9002084F83800204600F00CF890
:10181000022084F83900211D206804F0DBFE01203D
:1018200084F839000020E9E738B504460E492068FD
:10183000884217D100BF002000900C48006840F09B
:1018400004000A4908600846006800F0040000909F
:1018500000BF00BF032201211E20FFF77BFA1E20DC
:10186000FFF76BFA38BD0000000800404038024026
:1018700001460868C06840F001000A68D060086846
:10188000006840F001000A6810600020704770474F
:1018900010B5044620680069C0F34000D8B1206844
:1018A000C068C0F34000B0B16FF002002168086169
:1018B000012020762068806900F0030018B12046DE
:1018C000FFF7E5FF05E0204600F0ADF8204600F008
:1018D00081F90020207620680069C0F38000D8B12B
:1018E0002068C068C0F38000B0B16FF004002168C8
:1018F0000861022020762068806900F4407018B1E9
:101900002046FFF7C4FF05E0204600F08CF8204693
:1019100000F060F90020207620680069C0F3C00064
:10192000D8B12068C068C0F3C000B0B16FF0080043
:1019300021680861042020762068C06900F0030057
:1019400018B12046FFF7A3FF05E0204600F06BF832
:10195000204600F03FF90020207620680069C0F39F
:101960000010D8B12068C068C0F30010B0B16FF0AB
:10197000100021680861082020762068C06900F402
:10198000407018B12046FFF782FF05E0204600F0C6
:101990004AF8204600F01EF90020207620680069F1
:1019A00000F0010058B12068C06800F0010030B1BB
:1019B0006FF0010021680861204600F033F92068CB
:1019C0000069C0F3C01058B12068C068C0F3C010EF
:1019D00030B16FF08000216808612046FFF708FFF2
:1019E00020680069C0F3801058B12068C068C0F357
:1019F000801030B16FF0400021680861204600F08F
:101A000029F920680069C0F3401058B12068C06807
:101A1000C0F3401030B16FF020002168086120460B
:101A2000FFF7E7FE10BD704770B504460D46164639
:101A300000BF94F83800012801D1022070BD0120B8
:101A400084F8380000BF022084F8390036B1042E33
:101A50001BD0082E31D00C2E5ED145E029462068DF
:101A600004F038FE2068806940F008002168886131
:101A70002068806920F004002168886120688069FE
:101A8000296908432168886147E02946206804F0F5
:101A900059FE2068806940F40060216888612068F0
:101AA000806920F4806021688861206880692969E4
:101AB00040EA0120216888612FE02946206804F06F
:101AC0007DFE2068C06940F008002168C861206878
:101AD000C06920F004002168C8612068C0692969D4
:101AE00008432168C86118E02946206804F0A2FE76
:101AF0002068C06940F400602168C8612068C0693E
:101B000020F480602168C8612068C069296940EAC2
:101B100001202168C86100E000BF00BF012084F8F7
:101B2000390000BF002084F8380000BF00BF85E7FF
:101B300010B504460CB9012010BD94F8390028B93D
:101B4000002084F83800204600F00CF8022084F8C9
:101B50003900211D206804F03DFD012084F8390082
:101B60000020E9E710B586B0044600BF00200090D1
:101B70001648006840F002001449086008460068F2
:101B800000F00200009000BF00BF00BF00200090E6
:101B90000E481038006840F002000C491039086007
:101BA0000846006800F00200009000BF00BF02205D
:101BB00001900290012003900320049002200590E0
:101BC00001A90348FEF75AFF06B010BD4038024095
:101BD000000402407047000030B504460D46012263
:101BE0002946206804F068FD0C492068884203D02B
:101BF0000B492068884201D1012000E0002028B173
:101C00002068406C40F40040216848642068006807
:101C100040F0010021680860002030BD0000014054
:101C20000004014010B50446074884420BD1074820
:101C3000006808B9012000E0002004490860044859
:101C4000007804F0D7F810BDDC020020808240420A
:101C50008C00002070477047F8B504460025002628
:101C60002068006800F001052068C06800F48076F4
:101C70007DB176B100BF0020009020680068009020
:101C800020684068009000BF00BFE06B40F001009A
:101C9000E06320680068C0F340052068406900F0F8
:101CA00001067DB176B100BF002000902068006879
:101CB000009020684068009000BF00BFE06B40F0DB
:101CC0000400E06320680068C0F380052068406974
:101CD00000F001067DB176B100BF002000902068C1
:101CE0000068009020684068009000BF00BFE06B73
:101CF00040F00200E06320680068C0F3C00520687F
:101D0000406900F001067DB176B100BF002000906F
:101D100020680068009020684068009000BF00BF05
:101D2000E06B40F00800E06320680068C0F34015F5
:101D30002068C06800F020061DB116B1204604F0EE
:101D4000C1FD20680068C0F3C0152068C06800F0BD
:101D500080061DB116B1204604F024FF20680068FB
:101D6000C0F380152068C06800F040061DB116B1B0
:101D7000204604F08FFDE06B28B1012084F8390083
:101D80002046FFF768FFF8BD10B504460CB90120E6
:101D900010BDA06900B100E000BF94F8390028B977
:101DA000002084F83800204600F026F8022084F84D
:101DB00039002068C06820F400502168C8602046BF
:101DC00004F0DEFD2068006920F49040216808617D
:101DD0002068406920F02A00216848612068C068B6
:101DE00040F400502168C8600020E063012084F8BE
:101DF00039000020CCE7000010B586B00446284921
:101E0000206888424AD100BF002000902548006821
:101E100040F00100234908600846006800F0010016
:101E2000009000BF00BF00BF002000901D4814308C
:101E3000006840F010001B49143108600846006833
:101E400000F01000009000BF00BF48150190022074
:101E5000029001200390022004900720059001A920
:101E60001148FEF70BFE4FF48060019001A90E4867
:101E7000FEF704FE2068C06820F040002168C860BA
:101E80002068C06840F020002168C8602520FEF767
:101E900054FF032211462520FEF75CFF06B010BD5B
:101EA0000010014030380240000002402DE9F047A8
:101EB00004460D46164699464FF0000894F83980BE
:101EC000B8F1010F02D0B8F1120F69D105B116B9FE
:101ED0000120BDE8F08700BF94F83800012801D147
:101EE0000220F6E7012084F8380000BF0020E063FC
:101EF00094F83900122803D1322084F8390002E026
:101F0000222084F83900A685E68535E0E08D401E64
:101F1000E085A068B0F5805F18D14B4600222021F3
:101F2000204604F077FE08B10320D2E72F4620694F
:101F300030B920684068C0F308003880AD1C1BE051
:101F400020684068C0B238806D1C15E04B46002206
:101F50002021204604F05EFE08B10320B9E7206985
:101F600020B92068406805F8010B05E0206840684A
:101F700000F07F0005F8010BE08D0028C6DC94F826
:101F80003900322803D1122084F8390002E0012000
:101F900084F8390000BF002084F8380000BF98E7BB
:101FA000022096E77047704700BFFEE730B52DED81
:101FB000048B83B004460020FE4A02EB041200901A
:101FC0005288FC4D05EB0415ED882A4493B2F94A7A
:101FD00002EB04121288F74D05EB0415AD882A4474
:101FE00090B2F44A02EB04125188F02201F0D2F8C8
:101FF000062C46D2DFE804F003465DFEFDFCEE4809
:102000000068B0B9322004F0CBF9EB480069012830
:1020100007D1EA48D0ED030AB0EE600A04F038F9BF
:1020200003E09FEDE70A04F033F9E6A0E349086016
:1020300015E0E1480068012811D1E049486804F042
:10204000AFF9DD480069012806D1DC48D0ED020A6D
:10205000B0EE600A04F060F9DCA0D8490860D74807
:102060000068D449097AD34ACDE900101288D14DCD
:10207000AD882A4490B2CF4AD38851883C2203F0DD
:1020800019FEBFE1CC484068CC494860486804F07C
:1020900087F9C848007EC74B00901D8A9B8A2B4455
:1020A00098B2C64B5A68C34B598A062303F0B8FD51
:1020B000A8E1C149886805F0FEFC41EC190B9FEDD1
:1020C000C40B53EC102B05F071FB41EC180B05F021
:1020D00087FABA498860B8480069012806D10846DD
:1020E000D0ED020AB0EE600A04F016F9B14890F89B
:1020F0002800B04B00901D8C9B8C2B4498B2AF4BAA
:1021000093ED020ABCEEC00A10EE102AA94B598CBE
:10211000042303F085FDB0A1A64890F82800A54A45
:10212000CDE90001158C928C2A44203290B2A14A4C
:10213000D38C518C082203F0BDFDA04890ED020A1B
:10214000F2EE040A20EE200ABCEEC00A10EE100ADD
:102150000A21B0FBF1F201FB1205964890F8280025
:10216000944A0090138C928C1A44283290B2914A6F
:10217000518C01232A4603F053FD8F4890ED020A4B
:10218000F8EE400A90ED010AB8EE400A80EE801A9F
:102190008A4880ED061A0020C0235822B021009002
:1021A000382000F0F7FF10200090844890ED060AD8
:1021B000BCEEC00A10EE102A0123B021382003F033
:1021C0002FFD85A010210B460822CDE90010B0217B
:1021D000402003F06FFD794890ED060ADFED7F0A9D
:1021E00020EE200ABCEEC00A10EE100A642102E0C4
:1021F000C5E07CE016E0B0FBF1F201FB1205102017
:1022000002232A46B0210090482003F009FD74A063
:1022100010210B460A46CDE90010B021582003F0EA
:1022200049FDEFE06449C86805F045FC41EC190B35
:102230009FED670B53EC102B05F0B8FA41EC180B2F
:1022400005F0CEF95D49C8605B480069012806D1F8
:102250000846D0ED030AB0EE600A04F019F85548BC
:1022600090F83800534B00901D8E9B8E2B4498B2F3
:10227000524B93ED030ABCEEC00A10EE102A4D4BF0
:10228000598E032303F0CCFC53A14A4890F8380040
:10229000484ACDE90001158E928E2A44183290B238
:1022A000444AD38E518E082203F004FD434890ED3A
:1022B000030AF2EE040A20EE200ABCEEC00A10EE79
:1022C000100A0A21B0FBF1F201FB1205394890F81F
:1022D0003800384A0090138E928E1A44203290B201
:1022E000344A518E01232A4603F09AFC8AE0324890
:1022F0000069012819D13BA0304908612E480068C7
:1023000038B90846D0ED030AB0EE600A03F0C0FF0A
:102310001EE02948006801281AD12848D0ED020A99
:10232000B0EE600A03F0F8FF12E02FA02349086125
:102330002148006820B99FED220A03F0A9FF07E0B9
:102340001D480068012803D19FED1D0A03F0E4FF3A
:102350001A480069174991F84810164ACDE900104B
:10236000B2F84050B2F844202A4490B2114AB2F870
:102370004630B2F84210182203F09CFC42E00E48AE
:102380004069012803D119A00C49486102E018A056
:102390000A494861094840691021064ACDE9001000
:1023A000B2F85050B2F854202A4490B2014AB2F820
:1023B000563021E000000020240100200801002008
:1023C00000000000536572766F0000004553430023
:1023D00000000000000024402E0000000000C84261
:1023E0006D7300004F4E00004F4646003A4F4E00BE
:1023F0003A4F464600000000B2F85210202203F087
:1024000059FC00BF00BF03B0BDEC048B30BD000021
:1024100000B587B000BF002001902648006840F05A
:102420000100244908600846006800F0010001909E
:1024300000BF00BF00BF002001900846006840F0C8
:10244000040008600846006800F00400019000BF26
:1024500000BF00BF002001900846006840F08000E7
:1024600008600846006800F08000019000BF00BFCF
:102470000120029000200390022004900320059088
:1024800002A90D48FEF7FAFA4FF40050029000201E
:102490000390012004900320059002A90748FEF74D
:1024A000EDFA0C20029002A90548FEF7E7FA07B002
:1024B00000BD000030380240000002400008024029
:1024C000001C024010B504464A48007818B10024A8
:1024D00000204949087048480078C8B94548007844
:1024E00090B9012004F07AFC444801880088401C1F
:1024F000424A1080B1F57A7F1DD100201146088034
:1025000001203D49087016E000203C49088012E097
:10251000012C01D1002402E0012004F05FFC3748C7
:1025200001880088401C354A10800A2903D1012403
:10253000002011460880012C02D101202D4908708D
:102540002C48007888B308212D48FEF7A5FB80B100
:1025500004212B48FEF7A0FB58B14FF40051294845
:10256000FEF79AFB28B101212748FEF795FB0128C9
:1025700024D10A2004F032FC00201E4908700821F2
:102580001F48FEF789FB08B9012010BD04211C4833
:10259000FEF782FB08B90220F7E74FF40051194813
:1025A000FEF77AFB10B90320EFE707E00121164898
:1025B000FEF772FB01281BD10420E6E70821104832
:1025C000FEF76AFB012813D104210D48FEF764FBD6
:1025D00001280DD141030B48FEF75EFB012807D10E
:1025E00001210948FEF758FB10B901200149087084
:1025F0000020CAE7FC000020FD000020FE000020B3
:10260000001C024000080240000002402DE9F04199
:102610002DED068B82B007462FB9062002B0BDEC27
:10262000068BBDE8F08100240FE0FE4850F824102E
:10263000183050F82400814205D0FA4850F8241090
:10264000183040F82410601CC4B2062CEDDB012FBA
:102650007ED0022F7DD0032F7CD0042F7BD1F24877
:10266000007818B1F048007804280FD1ED481830F0
:10267000ED49097810F82100401C00F00101E948FB
:102680001830E94A127840F82210D2E0E648007883
:10269000012828D1E3480068012824D1E1481830F6
:1026A000E149097850F821000A304FF4FF71B0FB7E
:1026B000F1F201FB1200322801D232200CE0D9489D
:1026C0001830D949097850F821000A304FF4FF71C9
:1026D000B0FBF1F201FB1200D2491831D24A127854
:1026E00041F82200A5E0D048007802286BD1CD48FF
:1026F0000068012867D1CB49C86905F0DCF941ECD5
:102700001A0B9FEDCA0B53EC102B05F023FA41EC8A
:10271000190B9FEDC80B53EC102B05F019FB02D2DF
:102720009FEDC40B0DE0BF49C86905F0C4F941EC49
:10273000190B9FEDBE0B53EC102B05F00BFA41EC7F
:10274000100BB0EE408AF0EE608A51EC180B03E0FB
:102750002AE26FE044E1F2E205F080F90646B14971
:10276000C86905F0A8F941EC190B9FEDB40B53ECC7
:10277000102B05F0EFF941EC180B05F06FF9054649
:10278000A8481830A849097850F82100401C711C4D
:10279000B0FBF1F201FB1201A94201D228460BE085
:1027A000A0481830A049097850F82100401C711C3D
:1027B000B0FBF1F201FB12009A4918319A4A1278E3
:1027C00041F8220035E098480078032816D1954852
:1027D000006898B9934818309349097850F8210057
:1027E000401C40F20971B0FBF1F201FB12018D486F
:1027F00018308D4A127840F822101AE08A48007882
:10280000052816D187480068012812D1854800693B
:1028100001280ED1834818308349097810F8210027
:10282000401C00F001017F4818307F4A127840F8C0
:10283000221085E27C48007818B17B480078042893
:102840000FD1784818307849097810F82100401CD9
:1028500000F0010173481830734A127840F82210D2
:10286000BDE07148007801281DD16E48006801283C
:1028700019D16C4818306C49097850F821000A3891
:10288000322807D3674818306749097850F8210083
:102890000A3801E04FF4FA7062491831624A12783E
:1028A00041F822009BE06048007802285AD15D4838
:1028B0000068012856D15B49C86905F0FCF841EC75
:1028C0001A0B9FED5A0B53EC102B05F043F941EC1A
:1028D000190B9FED580B53EC102B05F039FA02D26F
:1028E0009FED540B0DE04F49C86905F0E4F841EC49
:1028F000190B9FED4E0B53EC102B05F02BF941EC0F
:10290000100BB0EE408AF0EE608A51EC180B05F027
:10291000A5F806464349C86905F0CDF841EC190B06
:102920009FED460B53EC102B05F014F941EC180BFE
:1029300005F094F805463B4818303B49097850F8B3
:102940002110491EA94205D33749097850F82100C2
:10295000401E00E0304633491831334A127841F8BE
:1029600022003CE03048007803281DD12D48006843
:10297000D0B92C4818302C49097850F82100401E55
:10298000B0F5E16F07D2274818302749097850F889
:102990002100401E01E04FF4E16022491831224A33
:1029A000127841F822001AE01F480078052816D155
:1029B0001C480068012812D11A48006901280ED16C
:1029C000184818301849097810F82100401C00F008
:1029D000010114481830144A127840F82210AFE16F
:1029E0004FF6FF70174908600F48007806284DD051
:1029F00015480D49097800EB0110C06812490A4AD0
:102A0000127801EB0211097ADFF83CC0DFF8188078
:102A1000CDE9001098F800800CEB081CBCF80630DB
:102A200014E0000024010020700000203333333311
:102A3000333303400000000000408F409A99999979
:102A40009999E93FF400002000000020DFF82CC332
:102A5000DFF82C8398F800800CEB081CBCF80420ED
:102A6000DFF818C3DFF8188398F800800CEB081C17
:102A7000BCF80210DFF804C3DFF8048398F8008084
:102A80000CEB081CBCF8000003F014F9BC480078FB
:102A900040B2401E002801D5062002E0B848007868
:102AA000401EB74908700846007806283BD1084602
:102AB0000078401EB14901EB0010C068B0490978A8
:102AC000491EAE4A02EB0111097ADFF8B4C2CDE922
:102AD00000109CF800C0ACF1010C904608EB0C1CF7
:102AE000BCF80630DFF898C29CF800C0ACF1010CCD
:102AF00008EB0C1CBCF80420DFF884C29CF800C072
:102B0000ACF1010C08EB0C1CBCF80210DFF870C231
:102B10009CF800C0ACF1010C08EB0C1CBCF80000E8
:102B200003F0C8F80CE14FF47840964908609348E8
:102B30009349097800EB0110C0689049904A1278D7
:102B400001EB0211097ADFF834C2DFF83482CDE9F3
:102B5000001098F800800CEB081CBCF80630DFF879
:102B60001CC2DFF81C8298F800800CEB081CBCF833
:102B70000420DFF808C2DFF8088298F800800CEB28
:102B8000081CBCF80210DFF8F4C1DFF8F48198F8F3
:102B900000800CEB081CBCF8000003F08BF84FF62B
:102BA000FF7078490860CBE04FF6FF707549086008
:102BB00073480078062837D070487149097800EBCF
:102BC0000110C0686D496E4A127801EB0211097A52
:102BD000DFF8A8C1DFF8A881CDE9001098F80080DF
:102BE0000CEB081CBCF80630DFF890C1DFF89081D0
:102BF00098F800800CEB081CBCF80420DFF87CC1BE
:102C0000DFF87C8198F800800CEB081CBCF80210FF
:102C1000DFF868C1DFF8688198F800800CEB081CC9
:102C2000BCF8000003F046F855480078401C072126
:102C300090FBF1F201FB1200514908700846007840
:102C400006283BD108460078401E4C4901EB001095
:102C5000C0684B490978491E484A02EB0111097ABC
:102C6000DFF81CC1CDE900109CF800C0ACF1010CEC
:102C7000904608EB0C1CBCF80630DFF804C19CF849
:102C800000C0ACF1010C08EB0C1CBCF80420DFF810
:102C9000F0C09CF800C0ACF1010C08EB0C1CBCF8B7
:102CA0000210DFF8DCC09CF800C0ACF1010C08EBAE
:102CB0000C1CBCF8000002F0FDFF41E04FF478402E
:102CC000304908602D482E49097800EB0110C06892
:102CD0002A492B4A127801EB0211097ADFF89CC0CD
:102CE000DFF89C80CDE9001098F800800CEB081C00
:102CF000BCF80630DFF884C0DFF8848098F80080E4
:102D00000CEB081CBCF80420DFF870C0DFF8708002
:102D100098F800800CEB081CBCF80210DFF85CC0CF
:102D2000DFF85C8098F800800CEB081CBCF8000011
:102D300002F0C0FF4FF6FF701249086000E000BFCC
:102D400000BF0F480078062814D0002410E00E4879
:102D500050F82410183050F82400814206D00A4858
:102D6000183050F82400084941F82400601CC4B20F
:102D7000062CECDB0248007850E400000000002044
:102D800070000020F40000202401002070B50446EB
:102D9000002609480588408845430021084602F07E
:102DA000DDFD02F0E7FF00BF02E004490C80761C65
:102DB000AE42FAD370BD0000CC02002000000860D3
:102DC00010B5044655488471002C51D1F020534968
:102DD00008804FF4A07048800846808849F241314D
:102DE000884205D04D48808845F21031884214D180
:102DF0002C204A4908812A2048812B2088810846B6
:102E0000808845F21031884206D14FF4A0704349C2
:102E100008804FF4F07048807BE04048808845F29D
:102E20001051884210D14FF430503C4908814FF482
:102E3000285048814FF42C5088814FF4F07008805E
:102E40004FF44870488064E03448808841F663114C
:102E500088425ED12C20314908812B2048812A20CC
:102E600088814FF4F07008804FF44870488050E03B
:102E70004FF4A07029490880F020488008468088D7
:102E800049F24131884205D02448808845F210310A
:102E9000884207D12C20214908812A2048812B20F3
:102EA000888129E01D48808845F21051884210D160
:102EB0004FF43050194908814FF4285048814FF49D
:102EC0002C5088814FF4487008804FF4F07048808F
:102ED00012E01248808841F6631188420CD12C2000
:102EE0000E4908812A2048812B2088814FF44870A0
:102EF00008804FF4F07048800848808845F210310F
:102F0000884206D14FF4F070044908804FF4A07055
:102F10004880002002F0E8FB10BD0000CC02002039
:102F20002DE9FF4F84B081468A460020039002902D
:102F30000698A0EB09050798A0EB0A06CDF80490C7
:102F4000CDF800A0002D01DD012705E00DB9002717
:102F500002E04FF0FF376D42002E02DD4FF0010816
:102F600006E016B94FF0000802E04FF0FF38764255
:102F7000B54201DD2C4600E034464FF0000B21E065
:102F8000009A91B2019A90B200F022F80398284476
:102F900003900298304402900398A04205DD039804
:102FA000001B03900198384401900298A04205DD6F
:102FB0000298001B02900098404400900BF1010021
:102FC0001FFA80FB601C8345DADD08B0BDE8F08F96
:102FD00030B504460D462946204602F0BFFC02F0FB
:102FE000C9FE024800880249088030BDF400002074
:102FF000000008602DE9F04306460F469046002485
:1030000045460320A0EB48093CE07A1B91B23219F7
:1030100090B2FFF7DDFF3A1B91B2721990B2FFF741
:10302000D7FF3A1991B2721990B2FFF7D1FF7A190E
:1030300091B2321990B2FFF7CBFF7A1991B2321BDD
:1030400090B2FFF7C5FF3A1991B2721B90B2FFF729
:10305000BFFF7A1B91B2321B90B2FFF7B9FF3A1B48
:1030600091B2721B90B2FFF7B3FF641CB9F1000F6D
:1030700003DAA000801D814404E0601B80000A3058
:1030800081446D1EAC42C0DDBDE8F08330B504461E
:103090000D463E48808849F24131884205D03B4880
:1030A000808845F21031884214D13849488902F0AD
:1030B00055FE201202F046FEE0B202F043FE334914
:1030C000888902F04BFE281202F03CFEE8B202F0C2
:1030D00039FE54E02D48808845F21051884220D1B5
:1030E0002A49488902F03AFE201202F02BFE2749B5
:1030F0004989491C88B202F031FEE0B202F022FE9A
:103100002249888902F02AFE281202F01BFE1F497C
:103110008989491C88B202F021FEE8B202F012FE51
:103120002DE01A48808841F66311884227D117485C
:10313000807920B915480088401E001B84B21349CD
:10314000488902F00BFE201202F0FCFDE0B202F012
:10315000F9FD201202F0F6FDE0B202F0F3FD0B499A
:10316000888902F0FBFD281202F0ECFDE8B202F0C3
:10317000E9FD281202F0E6FDE8B202F0E3FD0348A3
:10318000008903490880891C0A8030BDCC020020D8
:10319000FEFF07602DE9F04F05460E46174698469C
:1031A000DDF824A04FF0000B781B401C1FFA80FBB9
:1031B000344613E02146284602F0D0FB02F0DAFD47
:1031C0004FF0000906E00749A1F800A009F101004D
:1031D0001FFA80F9D945F6DB601C84B24445E9DD6D
:1031E000BDE8F08F0000086000B595B000BF00207A
:1031F0000190FE48006840F00200FC490860084663
:10320000006800F00200019000BF00BF2020109075
:103210000120119012900320139010A9F448FDF79B
:103220002DFC4FF02040F3490860F348486000202F
:1032300088600021EF48C1600161102141610021D7
:103240008161C16141624FF4805181620021C1629C
:103250004FF4804101630021416381634FF4801189
:10326000C1630F20099000200A9046200B90002097
:103270000F900F200290002003900F200490002058
:10328000089002AA09A9DB48FEF706FA322003F0EB
:10329000A5FDD32002F062FD02F0ECF9D749888049
:1032A00002F0E8F9D549888002F0E4F9D349888032
:1032B000084680884FF6FF7101EA0020CF498880D8
:1032C00002F0D8F9CD4989880843CC49888008465E
:1032D000808849F24131884278D0D42002F03EFD06
:1032E00002F0C8F9C549888002F0C4F9C349888052
:1032F00002F0C0F9C1498880084680884FF6FF7106
:1033000001EA0020BD49888002F0B4F9BB498988F0
:103310000843BA4988800846808845F210318842BF
:1033200054D04FF45A4002F019FD02F0A3F9B3490A
:1033300088804FF45B4002F011FD02F09BF9AF4929
:103340008880084680884FF6FF7101EA0020AB496B
:1033500088804FF45C4002F001FD02F08BF9A74930
:1033600089880843A549888008468088B0F5004FC1
:1033700002D145F210508880A048808845F2105153
:10338000884223D0A12002F0E9FC02F073F99B49A6
:10339000888002F06FF999498880084680884FF646
:1033A000FF7101EA00209549888002F063F9934992
:1033B00089880843914988800846808845F2617170
:1033C000884203D141F663108C4988808B488188FC
:1033D0008BA0FCF761FF8948808849F2413188421F
:1033E0007ED1CF2002F0BAFC002002F0ABFCC1205D
:1033F00002F0A8FC302002F0A5FCED2002F0AEFCAB
:10340000642002F09FFC032002F09CFC122002F0DA
:1034100099FC812002F096FCE82002F09FFC8520B8
:1034200002F090FC102002F08DFC7A2002F08AFC61
:10343000CB2002F093FC392002F084FC2C2002F017
:1034400081FC002002F07EFC342002F07BFC022094
:1034500002F078FCF72002F081FC202002F072FCE0
:10346000EA2002F07BFC002002F06CFC002002F05D
:1034700069FCC02002F072FC1B2002F063FCC1203A
:1034800002F06CFC012002F05DFCC52002F066FC3D
:10349000302002F057FC302002F054FCC72002F02C
:1034A0005DFCB72002F04EFC362002F057FC4820AD
:1034B00002F048FC3A2002F051FC552002F042FC98
:1034C000B12002F04BFC002002F03CFC1A2002F07C
:1034D00039FCB62002F042FC0A2002F033FC00E086
:1034E000AAE0A22002F02EFCF22002F037FC00201D
:1034F00002F028FC262002F031FC012002F022FC20
:10350000E02002F02BFC0F2002F01CFC2A2002F02D
:1035100019FC282002F016FC082002F013FC0E20F3
:1035200002F010FC082002F00DFC542002F00AFC0E
:10353000A92002F007FC432002F004FC0A2002F05C
:1035400001FC0F2002F0FEFB002002F0FBFB00203C
:1035500002F0F8FB002002F0F5FB002002F0F2FB85
:10356000E12002F0FBFB002002F0ECFB152002F052
:10357000E9FB172002F0E6FB072002F0E3FB112035
:1035800002F0E0FB062002F0DDFB2B2002F0DAFB6C
:10359000562002F0D7FB3C2002F0D4FB052002F0BD
:1035A000D1FB102002F0CEFB0F2002F0CBFB3F201E
:1035B00002F0C8FB3F2002F0C5FB0F2002F0C2FB67
:1035C0002B2002F0CBFB002002F0BCFB002002F01D
:1035D000B9FB012002F0B6FB3F2002F0B3FB2A202A
:1035E00002F0BCFB002002F0ADFB11E030380240DD
:1035F000000402407C020020040100A0CC02002054
:10360000204C43442049443A25780D0A000000002C
:10361000002002F097FB002002F094FBEF2002F064
:1036200091FB112002F09AFB782003F0D7FB2920B0
:1036300002F094FB01F0CBBFFE48808845F21031C8
:10364000884240F07C87ED2002F088FB012002F0E8
:1036500079FBFE2002F076FBEE2002F07FFBDE20FD
:1036600002F070FB212002F06DFBF12002F076FBEE
:10367000012002F067FBDF2002F070FB102002F057
:1036800061FBC42002F06AFB8F2002F05BFBC620C6
:1036900002F064FB002002F055FBE22002F052FB36
:1036A000E22002F04FFBE22002F04CFBBF2002F0D0
:1036B00055FBAA2002F046FBB02002F04FFB0D2084
:1036C00002F040FB002002F03DFB0D2002F03AFB2F
:1036D000002002F037FB112002F034FB002002F042
:1036E00031FB192002F02EFB002002F02BFB2120E1
:1036F00002F028FB002002F025FB2D2002F022FB27
:10370000002002F01FFB3D2002F01CFB002002F015
:1037100019FB5D2002F016FB002002F013FB5D2078
:1037200002F010FB002002F00DFBB12002F016FBAE
:10373000802002F007FB002002F004FB8B2002F047
:1037400001FB002002F0FEFA962002F0FBFA0020B6
:1037500002F0F8FAB22002F001FB002002F0F2FAC7
:10376000002002F0EFFA022002F0ECFA002002F052
:10377000E9FA032002F0E6FA002002F0E3FAB320AF
:1037800002F0ECFA002002F0DDFA002002F0DAFA92
:10379000002002F0D7FA002002F0D4FA002002F054
:1037A000D1FA002002F0CEFA002002F0CBFA00207D
:1037B00002F0C8FA002002F0C5FA002002F0C2FAB6
:1037C000002002F0BFFA002002F0BCFA002002F054
:1037D000B9FA002002F0B6FA002002F0B3FA002095
:1037E00002F0B0FA002002F0ADFA002002F0AAFACE
:1037F000002002F0A7FA002002F0A4FA002002F054
:10380000A1FA002002F09EFA002002F09BFA0020AC
:1038100002F098FAB42002F0A1FA8B2002F092FA9A
:10382000002002F08FFA962002F08CFA002002F0BD
:1038300089FAA12002F086FA002002F083FAB5206E
:1038400002F08CFA022002F07DFA002002F07AFAEF
:10385000032002F077FA002002F074FA042002F04C
:1038600071FA002002F06EFAB62002F077FA00201A
:1038700002F068FA002002F065FAB72002F06EFA52
:10388000002002F05FFA002002F05CFA3F2002F014
:1038900059FA002002F056FA5E2002F053FA002096
:1038A00002F050FA642002F04DFA002002F04AFAC9
:1038B0008C2002F047FA002002F044FAAC2002F01B
:1038C00041FA002002F03EFADC2002F03BFA002030
:1038D00002F038FA702002F035FA002002F032FAD5
:1038E000902002F02FFA002002F02CFAEB2002F0D8
:1038F00029FA002002F026FADC2002F023FA002048
:1039000002F020FAB82002F029FA002002F01AFA98
:10391000002002F017FA002002F014FA002002F052
:1039200011FA002002F00EFA002002F00BFA00203B
:1039300002F008FA002002F005FABA2002F00EFAAE
:10394000242002F0FFF9002002F0FCF9002002F030
:10395000F9F9002002F0F6F9C12002F0FFF9202069
:1039600002F0F0F9002002F0EDF9542002F0EAF93B
:10397000002002F0E7F9FF2002F0E4F9002002F055
:10398000E1F9C22002F0EAF90A2002F0DBF9002096
:1039900002F0D8F9042002F0D5F9002002F0D2F9A3
:1039A000C32002F0DBF93C2002F0CCF9002002F049
:1039B000C9F93A2002F0C6F9002002F0C3F9392013
:1039C00002F0C0F9002002F0BDF9372002F0BAF988
:1039D000002002F0B7F93C2002F0B4F9002002F018
:1039E000B1F9362002F0AEF9002002F0ABF9322036
:1039F00002F0A8F9002002F0A5F92F2002F0A2F9A8
:103A0000002002F09FF92C2002F09CF9002002F027
:103A100099F9292002F096F9002002F093F9262066
:103A200002F090F9002002F08DF9242002F08AF9CA
:103A3000002001E0CC02002002F084F9242002F0F2
:103A400081F9002002F07EF9232002F07BF90020AA
:103A500002F078F93C2002F075F9002002F072F9CA
:103A6000362002F06FF9002002F06CF9322002F0EB
:103A700069F9002002F066F92F2002F063F90020B6
:103A800002F060F92C2002F05DF9002002F05AF9F2
:103A9000292002F057F9002002F054F9262002F004
:103AA00051F9002002F04EF9242002F04BF90020D9
:103AB00002F048F9242002F045F9002002F042F912
:103AC000232002F03FF9002002F03CF9C42002F06C
:103AD00045F9622002F036F9002002F033F90520A2
:103AE00002F030F9002002F02DF9842002F02AF9CA
:103AF000002002F027F9F02002F024F9002002F063
:103B000021F9182002F01EF9002002F01BF9A42070
:103B100002F018F9002002F015F9182002F012F94D
:103B2000002002F00FF9502002F00CF9002002F002
:103B300009F90C2002F006F9002002F003F9172021
:103B400002F000F9002002F0FDF8952002F0FAF8EA
:103B5000002002F0F7F8F32002F0F4F8002002F061
:103B6000F1F8E62002F0EEF8002002F0EBF8C520B4
:103B700002F0F4F8322002F0E5F8002002F0E2F85A
:103B8000442002F0DFF8002002F0DCF8652002F0AB
:103B9000D9F8002002F0D6F8762002F0D3F8002001
:103BA00002F0D0F8882002F0CDF8002002F0CAF828
:103BB000C62002F0D3F8202002F0C4F8002002F062
:103BC000C1F8172002F0BEF8002002F0BBF8012077
:103BD00002F0B8F8002002F0B5F8C72002F0BEF8F5
:103BE000002002F0AFF8002002F0ACF8002002F054
:103BF000A9F8002002F0A6F8C82002F0AFF80020D3
:103C000002F0A0F8002002F09DF8002002F09AF8DF
:103C1000002002F097F8C92002F0A0F8002002F07E
:103C200091F8002002F08EF8002002F08BF80020BE
:103C300002F088F8002002F085F8002002F082F8F7
:103C4000002002F07FF8002002F07CF8002002F053
:103C500079F8002002F076F8002002F073F80020D6
:103C600002F070F8002002F06DF8002002F06AF80F
:103C7000002002F067F8002002F064F8E02002F073
:103C80006DF8162002F05EF8002002F05BF81C20B0
:103C900002F058F8002002F055F8212002F052F806
:103CA000002002F04FF8362002F04CF8002002F01D
:103CB00049F8462002F046F8002002F043F852206E
:103CC00002F040F8002002F03DF8642002F03AF8DB
:103CD000002002F037F87A2002F034F8002002F0D9
:103CE00031F88B2002F02EF8002002F02BF89920FA
:103CF00002F028F8002002F025F8A82002F022F8AF
:103D0000002002F01FF8B92002F01CF8002002F099
:103D100019F8C42002F016F8002002F013F8CA20A7
:103D200002F010F8002002F00DF8D22002F00AF89C
:103D3000002002F007F8D92002F004F8002002F079
:103D400001F8E02001F0FEFF002001F0FBFFF3206E
:103D500001F0F8FF002001F0F5FFE12001F0FEFF87
:103D6000162001F0EFFF002001F0ECFF1C2001F015
:103D7000E9FF002001F0E6FF222001F0E3FF002030
:103D800001F0E0FF362001F0DDFF002001F0DAFF56
:103D9000452001F0D7FF002001F0D4FF522001F0B0
:103DA000D1FF002001F0CEFF642001F0CBFF002006
:103DB00001F0C8FF7A2001F0C5FF002001F0C2FF2A
:103DC0008B2001F0BFFF002001F0BCFF992001F023
:103DD000B9FF002001F0B6FFA82001F0B3FF0020DA
:103DE00001F0B0FFB92001F0ADFF002001F0AAFF03
:103DF000C42001F0A7FF002001F0A4FFCA2001F0B9
:103E0000A1FF002001F09EFFD22001F09BFF0020C7
:103E100001F098FFD82001F095FF002001F092FFFB
:103E2000E02001F08FFF002001F08CFFF32001F073
:103E300089FF002001F086FFE22001F08FFF0520BE
:103E400001F080FF002001F07DFF0B2001F07AFFE0
:103E5000002001F077FF1B2001F074FF002001F02B
:103E600071FF342001F06EFF002001F06BFF442051
:103E700001F068FF002001F065FF4F2001F062FFB4
:103E8000002001F05FFF612001F05CFF002001F0E5
:103E900059FF792001F056FF002001F053FF8820E0
:103EA00001F050FF002001F04DFF972001F04AFF84
:103EB000002001F047FFA62001F044FF002001F0A0
:103EC00041FFB72001F03EFF002001F03BFFC22080
:103ED00001F038FF002001F035FFC72001F032FF6C
:103EE000002001F02FFFD12001F02CFF002001F075
:103EF00029FFD62001F026FF002001F023FFDD205E
:103F000001F020FF002001F01DFFF32001F01AFF57
:103F1000002001F017FFE32001F020FF052001F051
:103F200011FF002001F00EFF0A2001F00BFF00201E
:103F300001F008FF1C2001F005FF002001F002FF46
:103F4000332001F0FFFE002001F0FCFE442001F0D0
:103F5000F9FE002001F0F6FE502001F0F3FE0020F3
:103F600001F0F0FE622001F0EDFE002001F0EAFE1B
:103F7000782001F0E7FE002001F0E4FE882001F047
:103F8000E1FE002001F0DEFE972001F0DBFE0020C4
:103F900001F0D8FEA62001F0D5FE002001F0D2FEEF
:103FA000B72001F0CFFE002001F0CCFEC22001F0CE
:103FB000C9FE002001F0C6FEC72001F0C3FE0020AC
:103FC00001F0C0FED12001F0BDFE002001F0BAFEDC
:103FD000D52001F0B7FE002001F0B4FEDD2001F095
:103FE000B1FE002001F0AEFEF32001F0ABFE002098
:103FF00001F0A8FEE42001F0B1FE012001F0A2FED4
:10400000002001F09FFE012001F09CFE002001F045
:1040100099FE022001F096FE002001F093FE2A2076
:1040200001F090FE002001F08DFE3C2001F08AFEA0
:10403000002001F087FE4B2001F084FE002001F0FB
:1040400081FE5D2001F07EFE002001F07BFE7420E9
:1040500001F078FE002001F075FE842001F072FE70
:10406000002001F06FFE932001F06CFE002001F0B3
:1040700069FEA22001F066FE002001F063FEB3207D
:1040800001F060FE002001F05DFEBE2001F05AFE4E
:10409000002001F057FEC42001F054FE002001F082
:1040A00051FECD2001F04EFE002001F04BFED3204A
:1040B00001F048FE002001F045FEDD2001F042FE47
:1040C000002001F03FFEF32001F03CFE002001F053
:1040D00039FEE52001F042FE002001F033FE002011
:1040E00001F030FE002001F02DFE002001F02AFE3C
:1040F000022001F027FE002001F024FE292001F01B
:1041000021FE002001F01EFE3C2001F01BFE0020DD
:1041100001F018FE4B2001F015FE002001F012FE08
:104120005D2001F00FFE002001F00CFE742001F074
:1041300009FE002001F006FE842001F003FE0020AD
:1041400001F000FE932001F0FDFD002001F0FAFDDA
:10415000A22001F0F7FD002001F0F4FDB32001F0F2
:10416000F1FD002001F0EEFDBE2001F0EBFD00208E
:1041700001F0E8FDC42001F0E5FD002001F0E2FDC2
:10418000CD2001F0DFFD002001F0DCFDD32001F0A7
:10419000D9FD002001F0D6FDDC2001F0D3FD002088
:1041A00001F0D0FDF32001F0CDFD002001F0CAFDAB
:1041B000E62001F0D3FD112001F0C4FD002001F044
:1041C000C1FD342001F0BEFD002001F0BBFD5620F2
:1041D00001F0B8FD002001F0B5FD762001F0B2FD40
:1041E000002001F0AFFD772001F0ACFD002001F0D0
:1041F000A9FD662001F0A6FD002001F0A3FD8820A6
:1042000001F0A0FD002001F09DFD992001F09AFD34
:10421000002001F097FDBB2001F094FD002001F08B
:1042200091FD992001F08EFD002001F08BFD6620AC
:1042300001F088FD002001F085FD552001F082FD90
:10424000002001F07FFD552001F07CFD002001F0F1
:1042500079FD452001F076FD002001F073FD43203B
:1042600001F070FD002001F06DFD442001F06AFDB9
:10427000002001F067FDE72001F070FD322001F021
:1042800061FD002001F05EFD552001F05BFD002086
:1042900001F058FD762001F055FD002001F052FD9F
:1042A000662001F04FFD002001F04CFD672001F079
:1042B00049FD002001F046FD672001F043FD00208C
:1042C00001F040FD872001F03DFD002001F03AFDA6
:1042D000992001F037FD002001F034FDBB2001F0F2
:1042E00031FD002001F02EFD992001F02BFD002072
:1042F00001F028FD772001F025FD002001F022FDCE
:10430000442001F01FFD002001F01CFD562001F0AB
:1043100019FD002001F016FD232001F013FD0020FF
:1043200001F010FD332001F00DFD002001F00AFD29
:10433000452001F007FD002001F004FDE82001F018
:104340000DFD002001F0FEFC002001F0FBFC992097
:1043500001F0F8FC002001F0F5FC872001F0F2FCF0
:10436000002001F0EFFC882001F0ECFC002001F0BF
:10437000E9FC772001F0E6FC002001F0E3FC662078
:1043800001F0E0FC002001F0DDFC882001F0DAFC07
:10439000002001F0D7FCAA2001F0D4FC002001F09D
:1043A000D1FCBB2001F0CEFC002001F0CBFC992019
:1043B00001F0C8FC002001F0C5FC662001F0C2FC41
:1043C000002001F0BFFC552001F0BCFC002001F0F2
:1043D000B9FC552001F0B6FC002001F0B3FC4420EC
:1043E00001F0B0FC002001F0ADFC442001F0AAFC7B
:1043F000002001F0A7FC552001F0A4FC002001F0F2
:10440000A1FCE92001F0AAFCAA2001F09BFC0020FD
:1044100001F098FC002001F095FC002001F092FCD6
:10442000002001F09BFCAA2001F08CFCCF2001F0C1
:1044300095FC002001F086FC002001F083FC0020A8
:1044400001F080FC002001F07DFC002001F07AFCEE
:10445000002001F077FC002001F074FC002001F046
:1044600071FC002001F06EFC002001F06BFC0020CC
:1044700001F068FC002001F065FC002001F062FC06
:10448000002001F05FFC002001F05CFC002001F046
:1044900059FC002001F056FCF02001F05FFC0020E8
:1044A00001F050FC502001F04DFC002001F04AFCCE
:1044B000002001F047FC002001F044FCF32001F053
:1044C0004DFC002001F03EFCF92001F047FC0620E5
:1044D00001F038FC102001F035FC292001F032FCFD
:1044E000002001F02FFC3A2001F038FC552001F0AB
:1044F00029FC112001F032FC642002F06FFC29201D
:1045000001F02CFC352001F029FC002001F01AFC00
:10451000512001F023FCFF2001F014FC532001F096
:104520001DFC2C2001F00EFC552001F017FC822010
:1045300001F008FC2C2001F011FC01F048B8FE4805
:10454000808845F2105188427ED155214FF4704049
:1045500001F01AFCAA214FF2010001F015FC5221D2
:104560004FF2020001F010FC08214FF2030001F0AD
:104570000BFC01214FF2040001F006FC0D214FF469
:10458000304001F001FC0D214BF2010001F0FCFB79
:104590000D214BF2020001F0F7FB34214FF43640BD
:1045A00001F0F2FB34214BF2016001F0EDFB34210C
:1045B0004BF2026001F0E8FB0D214FF4314001F0B5
:1045C000E3FB0D214BF2011001F0DEFB0D214BF25C
:1045D000021001F0D9FB34214FF4374001F0D4FB35
:1045E00034214BF2017001F0CFFB34214BF2027009
:1045F00001F0CAFB00214FF4324001F0C5FB00215D
:104600004BF2012001F0C0FB00214BF2022001F02F
:10461000BBFB24214FF4384001F0B6FB24214BF6BC
:10462000010001F0B1FB24214BF6020001F0ACFBCC
:1046300001214FF43F4001F0A7FB0F214FF433401D
:1046400001F0A2FB0F2100E0FEE34BF2013001F08C
:104650009BFB0F214BF2023001F096FB34214FF40B
:10466000394001F091FB34214BF6011001F08CFB35
:1046700034214BF6021001F087FB08214FF435403E
:1046800001F082FB08214BF2015001F07DFB082173
:104690004BF2025001F078FB03214FF4424001F04D
:1046A00073FB24214FF43A4001F06EFB24214BF6BA
:1046B000012001F069FB24214BF6022001F064FB8C
:1046C00000214FF43C4001F05FFB78214BF60140A4
:1046D00001F05AFB00214BF6024001F055FB00218E
:1046E0004FF43D4001F050FB78214BF6015001F0B2
:1046F0004BFB00214BF6025001F046FB00214FF42A
:104700003E4001F041FB64214BF6016001F03CFBAF
:1047100000214FF4514001F037FB33214DF20110DD
:1047200001F032FB00214DF2021001F02DFB34218B
:104730004DF2031001F028FB00214DF2041001F0AE
:1047400023FB3A214DF2051001F01EFB00214DF232
:10475000061001F019FB4A214DF2071001F014FB7D
:1047600000214DF2081001F00FFB5C214DF2091001
:1047700001F00AFB00214DF20A1001F005FB812136
:104780004DF20B1001F000FB00214DF20C1001F076
:10479000FBFAA6214DF20D1001F0F6FA00214DF2C0
:1047A0000E1001F0F1FAE5214DF20F1001F0ECFAD4
:1047B00001214DF2101001F0E7FA13214DF2111012
:1047C00001F0E2FA01214DF2121001F0DDFA54215C
:1047D0004DF2131001F0D8FA01214DF2141001F03E
:1047E000D3FA82214DF2151001F0CEFA01214DF2DB
:1047F000161001F0C9FACA214DF2171001F0C4FADF
:1048000002214DF2181001F0BFFA00214DF21910EB
:1048100001F0BAFA02214DF21A1001F0B5FA0121A5
:104820004DF21B1001F0B0FA02214DF21C1001F004
:10483000ABFA34214DF21D1001F0A6FA02214DF21F
:104840001E1001F0A1FA67214DF21F1001F09CFA31
:1048500002214DF2201001F097FA84214DF221102F
:1048600001F092FA02214DF2221001F08DFAA421FA
:104870004DF2231001F088FA02214DF2241001F0CC
:1048800083FAB7214DF2251001F07EFA02214DF294
:10489000261001F079FACF214DF2271001F074FAB9
:1048A00002214DF2281001F06FFADE214DF229109D
:1048B00001F06AFA02214DF22A1001F065FAF221A4
:1048C0004DF22B1001F060FA02214DF22C1001F094
:1048D0005BFAFE214DF22D1001F056FA03214DF244
:1048E0002E1001F051FA10214DF22F1001F04CFA68
:1048F00003214DF2301001F047FA33214DF231100F
:1049000001F042FA03214DF2321001F03DFA6D211F
:104910004DF2331001F038FA00214FF4524001F00B
:1049200033FA33214DF2012001F02EFA00214DF22D
:10493000022001F029FA01E0CC02002034214DF2DE
:10494000032001F021FA00214DF2042001F01CFAAD
:104950003A214DF2052001F017FA00214DF2062010
:1049600001F012FA4A214DF2072001F00DFA002160
:104970004DF2082001F008FA5C214DF2092001F007
:1049800003FA00214DF20A2001F0FEF981214DF2D7
:104990000B2001F0F9F900214DF20C2001F0F4F99F
:1049A000A6214DF20D2001F0EFF900214DF20E206D
:1049B00001F0EAF9E5214DF20F2001F0E5F90121BE
:1049C0004DF2102001F0E0F913214DF2112001F019
:1049D000DBF901214DF2122001F0D6F954214DF2FC
:1049E000132001F0D1F901214DF2142001F0CCF98E
:1049F00082214DF2152001F0C7F901214DF2162058
:104A000001F0C2F9CA214DF2172001F0BDF90221CF
:104A10004DF2182001F0B8F900214DF2192001F0F3
:104A2000B3F902214DF21A2001F0AEF901214DF245
:104A30001B2001F0A9F902214DF21C2001F0A4F97C
:104A400034214DF21D2001F09FF902214DF21E206C
:104A500001F09AF967214DF21F2001F095F902212A
:104A60004DF2202001F090F984214DF2212001F037
:104A70008BF902214DF2222001F086F9A4214DF29A
:104A8000232001F081F902214DF2242001F07CF96C
:104A9000B7214DF2252001F077F902214DF22620B1
:104AA00001F072F9CF214DF2272001F06DF90221BA
:104AB0004DF2282001F068F9DE214DF2292001F0A5
:104AC00063F902214DF22A2001F05EF9F2214DF244
:104AD0002B2001F059F902214DF22C2001F054F95C
:104AE000FE214DF22D2001F04FF903214DF22E2031
:104AF00001F04AF910214DF22F2001F045F9032170
:104B00004DF2302001F040F933214DF2312001F017
:104B10003BF903214DF2322001F036F96D214DF2BF
:104B2000332001F031F900214FF4534001F02CF90A
:104B300033214DF2013001F027F900214DF202300E
:104B400001F022F934214DF2033001F01DF900216A
:104B50004DF2043001F018F93A214DF2053001F020
:104B600013F900214DF2063001F00EF94A214DF201
:104B7000073001F009F900214DF2083001F004F985
:104B80005C214DF2093001F0FFF800214DF20A30AE
:104B900001F0FAF881214DF20B3001F0F5F8002117
:104BA0004DF20C3001F0F0F8A6214DF20D3001F07D
:104BB000EBF800214DF20E3001F0E6F8E5214DF260
:104BC0000F3001F0E1F801214DF2103001F0DCF876
:104BD00013214DF2113001F0D7F801214DF21230BE
:104BE00001F0D2F854214DF2133001F0CDF801213B
:104BF0004DF2143001F0C8F882214DF2153001F069
:104C0000C3F801214DF2163001F0BEF8CA214DF271
:104C1000173001F0B9F802214DF2183001F0B4F864
:104C200000214DF2193001F0AFF802214DF21A3097
:104C300001F0AAF801214DF21B3001F0A5F8022184
:104C40004DF21C3001F0A0F834214DF21D3001F07E
:104C50009BF802214DF21E3001F096F867214DF2CB
:104C60001F3001F091F802214DF2203001F08CF854
:104C700084214DF2213001F087F802214DF22230DB
:104C800001F082F8A4214DF2233001F07DF80221D9
:104C90004DF2243001F078F8B7214DF2253001F0C3
:104CA00073F802214DF2263001F06EF8CF214DF25B
:104CB000273001F069F802214DF2283001F064F844
:104CC000DE214DF2293001F05FF802214DF22A3049
:104CD00001F05AF8F2214DF22B3001F055F8022183
:104CE0004DF22C3001F050F8FE214DF22D3001F044
:104CF0004BF803214DF22E3001F046F810214DF211
:104D00002F3001F041F803214DF2303001F03CF832
:104D100033214DF2313001F037F803214DF23230BA
:104D200001F032F86D214DF2333001F02DF8002101
:104D30004FF4544001F028F833214DF2014001F0C6
:104D400023F800214DF2024001F01EF834214DF20B
:104D5000034001F019F800214DF2044001F014F86D
:104D60003A214DF2054001F00FF800214DF20640C6
:104D700001F00AF84A214DF2074001F005F8002140
:104D80004DF2084001F000F85C214DF2094000F0BE
:104D9000FBFF00214DF20A4000F0F6FF81214DF2A9
:104DA0000B4000F0F1FF00214DF20C4000F0ECFF51
:104DB000A6214DF20D4000F0E7FF00214DF20E401C
:104DC00000F0E2FFE5214DF20F4000F0DDFF012190
:104DD0004DF2104000F0D8FF13214DF2114000F0C9
:104DE000D3FF01214DF2124000F0CEFF54214DF2CD
:104DF000134000F0C9FF01214DF2144000F0C4FF40
:104E000082214DF2154000F0BFFF01214DF2164006
:104E100000F0BAFFCA214DF2174000F0B5FF0221A1
:104E20004DF2184000F0B0FF00214DF2194000F0A3
:104E3000ABFF02214DF21A4000F0A6FF01214DF216
:104E40001B4000F0A1FF00E003E302214DF21C40F3
:104E500000F09AFF34214DF21D4000F095FF022131
:104E60004DF21E4000F090FF67214DF21F4000F010
:104E70008BFF02214DF2204000F086FF84214DF28D
:104E8000214000F081FF02214DF2224000F07CFF22
:104E9000A4214DF2234000F077FF02214DF224407F
:104EA00000F072FFB7214DF2254000F06DFF0221A6
:104EB0004DF2264000F068FFCF214DF2274000F070
:104EC00063FF02214DF2284000F05EFFDE214DF22B
:104ED000294000F059FF02214DF22A4000F054FF12
:104EE000F2214DF22B4000F04FFF02214DF22C40F9
:104EF00000F04AFFFE214DF22D4000F045FF032156
:104F00004DF22E4000F040FF10214DF22F4000F0F6
:104F10003BFF03214DF2304000F036FF33214DF2CC
:104F2000314000F031FF03214DF2324000F02CFF00
:104F30006D214DF2334000F027FF00214FF4554022
:104F400000F022FF33214DF2015000F01DFF00213F
:104F50004DF2025000F018FF34214DF2035000F0E2
:104F600013FF00214DF2045000F00EFF3A214DF2E4
:104F7000055000F009FF00214DF2065000F004FF3B
:104F80004A214DF2075000F0FFFE00214DF208507B
:104F900000F0FAFE5C214DF2095000F0F5FE002110
:104FA0004DF20A5000F0F0FE81214DF20B5000F05E
:104FB000EBFE00214DF20C5000F0E6FEA6214DF272
:104FC0000D5000F0E1FE00214DF20E5000F0DCFE2D
:104FD000E5214DF20F5000F0D7FE01214DF21050A7
:104FE00000F0D2FE13214DF2115000F0CDFE012150
:104FF0004DF2125000F0C8FE54214DF2135000F053
:10500000C3FE01214DF2145000F0BEFE82214DF28C
:10501000155000F0B9FE01214DF2165000F0B4FE1B
:10502000CA214DF2175000F0AFFE02214DF2185088
:1050300000F0AAFE00214DF2195000F0A5FE022159
:105040004DF21A5000F0A0FE01214DF21B5000F06D
:105050009BFE02214DF21C5000F096FE34214DF2D1
:105060001D5000F091FE02214DF21E5000F08CFE0A
:1050700067214DF21F5000F087FE02214DF22050B3
:1050800000F082FE84214DF2215000F07DFE0221CD
:105090004DF2225000F078FEA4214DF2235000F092
:1050A00073FE02214DF2245000F06EFEB7214DF246
:1050B000255000F069FE02214DF2265000F064FEFA
:1050C000CF214DF2275000F05FFE02214DF2285013
:1050D00000F05AFEDE214DF2295000F055FE02216B
:1050E0004DF22A5000F050FEF2214DF22B5000F00C
:1050F0004BFE02214DF22C5000F046FEFE214DF2F7
:105100002D5000F041FE03214DF22E5000F03CFEE8
:1051100010214DF22F5000F037FE03214DF2305098
:1051200000F032FE33214DF2315000F02DFE03210C
:105130004DF2325000F028FE6D214DF2335000F058
:1051400023FE00214FF4564000F01EFE33214DF2A5
:10515000016000F019FE00214DF2026000F014FE23
:1051600034214DF2036000F00FFE00214DF2046087
:1051700000F00AFE3A214DF2056000F005FE002124
:105180004DF2066000F000FE4A214DF2076000F08B
:10519000FBFD00214DF2086000F0F6FD5C214DF2B0
:1051A000096000F0F1FD00214DF20A6000F0ECFD15
:1051B00081214DF20B6000F0E7FD00214DF20C6003
:1051C00000F0E2FDA6214DF20D6000F0DDFD0021B2
:1051D0004DF20E6000F0D8FDE5214DF20F6000F0B9
:1051E000D3FD01214DF2106000F0CEFD13214DF2F0
:1051F000116000F0C9FD01214DF2126000F0C4FD04
:1052000054214DF2136000F0BFFD01214DF21460F6
:1052100000F0BAFD82214DF2156000F0B5FD0121CC
:105220004DF2166000F0B0FDCA214DF2176000F09B
:10523000ABFD02214DF2186000F0A6FD00214DF2F9
:10524000196000F0A1FD02214DF21A6000F09CFDF2
:1052500001214DF21B6000F097FD02214DF21C6010
:1052600000F092FD34214DF21D6000F08DFD022111
:105270004DF21E6000F088FD67214DF21F6000F0C6
:1052800083FD02214DF2206000F07EFD84214DF26D
:10529000216000F079FD02214DF2226000F074FDE2
:1052A000A4214DF2236000F06FFD02214DF2246035
:1052B00000F06AFDB7214DF2256000F065FD022186
:1052C0004DF2266000F060FDCF214DF2276000F026
:1052D0005BFD02214DF2286000F056FDDE214DF20B
:1052E000296000F051FD02214DF22A6000F04CFDD2
:1052F000F2214DF22B6000F047FD02214DF22C60AF
:1053000000F042FDFE214DF22D6000F03DFD032135
:105310004DF22E6000F038FD10214DF22F6000F0AC
:1053200033FD03214DF2306000F02EFD33214DF2AC
:10533000316000F029FD03214DF2326000F024FDC0
:105340006D214DF2336000F01FFD55214FF4704088
:1053500000F01AFDAA214FF2010000F015FD5221C4
:105360004FF2020000F010FD08214FF2030000F0A0
:105370000BFD00214FF2040000F006FDCC214FF49C
:10538000314000F001FD00214BF2011000F0FCFC67
:1053900005214FF4364000F0F7FC70214FF4374000
:1053A00000F0F2FC70214BF2017000F0EDFC0121E5
:1053B0004FF4384000F0E8FC03214BF6010000F008
:1053C000E3FC03214BF6020000F0DEFC03214BF668
:1053D000030000F0D9FC02214FF43C4000F0D4FC63
:1053E00000214BF6014000F0CFFC00214BF60240BB
:1053F00000F0CAFCD0214FF4494000F0C5FC022166
:105400004CF6011000F0C0FC50214CF6021000F0E8
:10541000BBFC50214CF6031000F0B6FC50214CF6BA
:10542000041000F0B1FC00214FF4545000F0ACFC2B
:1054300055214FF4685000F0A7FC4FF4885000F05D
:105440008DFC782001F0D6FC4FF4245000F086FC4F
:10545000BDE07F48808841F663118842F8D1E220A0
:1054600000F07CFC1D2000F06DFC022000F06AFCC6
:10547000042000F067FC642001F0BCFCE02000F098
:105480006DFC012000F05EFC0A2001F0A7FCE0208A
:1054900000F064FC032000F055FC0C2001F09EFCA1
:1054A000012000F05BFC0A2001F098FCE62000F0EF
:1054B00055FC2F2000F046FCFF2000F043FCFF20AD
:1054C00000F040FCB02000F049FC202000F03AFC45
:1054D000002000F037FC032000F034FC40F21F30C5
:1054E00000F030FC012000F02DFC40F2DF1000F055
:1054F00029FC002000F026FCB42000F02FFC042042
:1055000000F020FC40F21F4000F01CFC002000F0E6
:1055100019FC2E2000F016FC002000F013FC0020E7
:1055200000F010FC002000F00DFC002000F00AFC50
:10553000B62000F013FC022000F004FC4FF40370CE
:1055400000F000FC002000F0FDFB172000F0FAFB4B
:10555000152000F0F7FB002000F0F4FB002000F025
:10556000F1FBF02000F0FAFB032000F0EBFB292018
:1055700000F0F4FBD02000F0F1FB002000F0E2FB93
:10558000BE2000F0EBFB052000F0DCFBFE2000F06D
:10559000D9FB012000F0D6FB002000F0D3FB002057
:1055A00000F0D0FB002000F0CDFBB82000F0D6FBCF
:1055B000032000F0C7FB012000F0C4FBBA2000F07C
:1055C000CDFB012000F0BEFB642000F05DF8204818
:1055D000808849F24131884211D01D48808845F2C7
:1055E000103188420BD01A48808845F21051884209
:1055F00005D01748808841F6631188421CD11548B0
:10560000006820F00F004FF02041C1F80401084667
:10561000D0F8040120F47060C1F804010846D0F805
:10562000040140F00400C1F804010846D0F8040168
:1056300040F48060C1F804010020FDF7C1FB0120A7
:10564000054908604FF6FF70FDF7A0FB15B000BDDF
:10565000CC020020040100A09482404210B5024612
:10566000012000E050430B1EA1F10104E1B2F9D189
:1056700010BD000008B5034800880090BDF8000088
:1056800008BD00000000086070B52DED048B0446D5
:10569000BE2000F063FB052000F054FB204602F022
:1056A0000AFA41EC190B9FED0E0B53EC102B02F094
:1056B00051FA41EC180B02F0D1F985B2284600F0FE
:1056C00041FB012000F03EFBFF2000F03BFB0020EF
:1056D00000F038FB002000F035FBBDEC048B70BD02
:1056E0006666666666660440F0B5054600240027D7
:1056F00099488079012805D19748808841F663113F
:10570000884208D194488079F0B99348808841F65E
:105710006311884218D1082D15D2DFE805F0040680
:10572000080A0C0E101206250DE007250BE00425D3
:1057300009E0052507E0012505E0002503E0032534
:1057400001E0022500BF00BF8348808849F2413153
:10575000884211D08048808845F2103188420BD0B1
:105760007D48808845F21051884205D07A4880886B
:1057700041F6631188427DD1082D1CD2DFE805F087
:105780000406090C0F12151800BF14E044F0800441
:1057900011E044F040040EE044F0C0040BE044F09B
:1057A000200408E044F0600405E044F0A00402E0B6
:1057B00044F0E00400BF00BF6748808845F2105104
:1057C000884202D14FF4585700E03627624880885B
:1057D00045F2103188420DD05F48808845F2105163
:1057E000884207D05C48808841F66311884201D026
:1057F00044F008042146384600F0C6FA564880882E
:1058000041F6631188421DD004F0200068B152486F
:10581000008851494988884214DA4F4806884088F0
:105820004D490880084646800CE04B4800884A49AC
:105830004988884206DD48480688408846490880ED
:10584000084646804448808845F21051884254D129
:105850004149488900F082FA002000F073FA3E497D
:105860004989491C88B200F079FA002000F06AFAF0
:10587000394900E06FE04989891C88B200F06EFA6E
:1058800035490988491EC1F30F2000F05BFA3249FF
:105890004989C91C88B200F061FA2F490978491E6C
:1058A000C8B200F04FFA2C49888900F057FA00205E
:1058B00000F048FA28498989491C88B200F04EFA5C
:1058C000002000F03FFA24498989891C88B200F041
:1058D00045FA21494988491EC1F30F2000F032FAE8
:1058E0001D498989C91C88B200F038FA1A4989789B
:1058F000491EC8B200F026FA2DE01749488900F089
:105900002DFA002000F01EFA002000F01BFA1249C8
:105910000988491EC1F30F2000F014FA0E490978D6
:10592000491EC8B200F00EFA0B49888900F016FA39
:10593000002000F007FA002000F004FA0649498828
:10594000491EC1F30F2000F0FDF903498978491E73
:10595000C8B200F0F7F9F0BDCC02002010B5024645
:105960000C464B48808849F24131884205D048486E
:10597000808845F21031884214D14549488900F0A9
:10598000EDF9101200F0DEF9D0B200F0DBF9404979
:10599000888900F0E3F9201200F0D4F9E0B200F0B9
:1059A000D1F973E03A48808841F66311884247D1C3
:1059B00037488079A8B936480088401E801A82B2DC
:1059C0003349488900F0CAF9002000F0BBF90020F3
:1059D00000F0B8F9101200F0B5F9D0B200F0B2F949
:1059E00016E02B49488900F0B9F9101200F0AAF925
:1059F000D0B200F0A7F926490988491EC1F30F204B
:105A000000F0A0F922490978491EC8B200F09AF9BD
:105A10001F49888900F0A2F9201200F093F9E0B242
:105A200000F090F91A494988491EC1F30F2000F08F
:105A300089F917498978491EC8B200F083F925E031
:105A40001348808845F2105188421FD11049488977
:105A500000F084F9101200F075F90D494989491CCC
:105A600088B200F07BF9D0B200F06CF9084988895F
:105A700000F074F9201200F065F905498989491C84
:105A800088B200F06BF9E0B200F05CF910BD0000E4
:105A9000CC0200202DE9FC4F80460F4615461C46DF
:105AA000019700200090A5F12000C5B2642C0CDD08
:105AB000A4F1640101FB01F0C11700EB5171C1F3C6
:105AC000C709A5F11000C5B21FE02046E31704EB9B
:105AD0005373DB1021464FEAE47C04EB5C7C4FEA15
